{
  "_format": "hh-sol-artifact-1",
  "contractName": "Quota",
  "sourceName": "contracts/Quota.sol",
  "abi": [
    {
      "inputs": [],
      "stateMutability": "payable",
      "type": "constructor"
    },
    {
      "anonymous": false,
      "inputs": [
        {
          "indexed": false,
          "internalType": "address",
          "name": "user",
          "type": "address"
        },
        {
          "indexed": false,
          "internalType": "uint256",
          "name": "size",
          "type": "uint256"
        },
        {
          "indexed": false,
          "internalType": "uint256",
          "name": "purchaseAt",
          "type": "uint256"
        },
        {
          "indexed": false,
          "internalType": "uint256",
          "name": "expireAt",
          "type": "uint256"
        }
      ],
      "name": "Purchase",
      "type": "event"
    },
    {
      "stateMutability": "payable",
      "type": "fallback"
    },
    {
      "inputs": [],
      "name": "getBalance",
      "outputs": [
        {
          "internalType": "uint256",
          "name": "",
          "type": "uint256"
        }
      ],
      "stateMutability": "view",
      "type": "function"
    },
    {
      "inputs": [
        {
          "internalType": "address",
          "name": "user",
          "type": "address"
        }
      ],
      "name": "getQuotaOf",
      "outputs": [
        {
          "components": [
            {
              "internalType": "uint256",
              "name": "size",
              "type": "uint256"
            },
            {
              "internalType": "uint256",
              "name": "purchaseAt",
              "type": "uint256"
            },
            {
              "internalType": "uint256",
              "name": "expireAt",
              "type": "uint256"
            }
          ],
          "internalType": "struct Quota.TX",
          "name": "",
          "type": "tuple"
        }
      ],
      "stateMutability": "view",
      "type": "function"
    },
    {
      "inputs": [
        {
          "internalType": "uint256",
          "name": "gb",
          "type": "uint256"
        }
      ],
      "name": "purchase",
      "outputs": [],
      "stateMutability": "payable",
      "type": "function"
    },
    {
      "inputs": [],
      "name": "withdraw",
      "outputs": [],
      "stateMutability": "payable",
      "type": "function"
    },
    {
      "stateMutability": "payable",
      "type": "receive"
    }
  ],
  "bytecode": "0x6080604052670de0b6b3a76400006001556103e8600255336000806101000a81548173ffffffffffffffffffffffffffffffffffffffff021916908373ffffffffffffffffffffffffffffffffffffffff1602179055506106ce806100656000396000f3fe6080604052600436106100435760003560e01c806312065fe01461004c5780633ccfd60b14610077578063cda5726514610081578063efef39a1146100be5761004a565b3661004a57005b005b34801561005857600080fd5b506100616100da565b60405161006e919061037e565b60405180910390f35b61007f6100e2565b005b34801561008d57600080fd5b506100a860048036038101906100a391906103fc565b61015e565b6040516100b5919061047a565b60405180910390f35b6100d860048036038101906100d391906104c1565b6101d5565b005b600047905090565b60008054906101000a900473ffffffffffffffffffffffffffffffffffffffff1673ffffffffffffffffffffffffffffffffffffffff166108fc670de0b6b3a764000047610130919061051d565b9081150290604051600060405180830381858888f1935050505015801561015b573d6000803e3d6000fd5b50565b610166610344565b600360008373ffffffffffffffffffffffffffffffffffffffff1673ffffffffffffffffffffffffffffffffffffffff16815260200190815260200160002060405180606001604052908160008201548152602001600182015481526020016002820154815250509050919050565b600154816101e39190610551565b3414610224576040517f08c379a000000000000000000000000000000000000000000000000000000000815260040161021b906105f0565b60405180910390fd5b3073ffffffffffffffffffffffffffffffffffffffff166108fc349081150290604051600060405180830381858888f1935050505015801561026a573d6000803e3d6000fd5b5060405180606001604052808281526020014281526020016301e13380426102929190610610565b815250600360003373ffffffffffffffffffffffffffffffffffffffff1673ffffffffffffffffffffffffffffffffffffffff1681526020019081526020016000206000820151816000015560208201518160010155604082015181600201559050507f5bc97d73357ac0d035d4b9268a69240988a5776b8a4fcced3dbc223960123f403382426301e13380426103299190610610565b6040516103399493929190610653565b60405180910390a150565b60405180606001604052806000815260200160008152602001600081525090565b6000819050919050565b61037881610365565b82525050565b6000602082019050610393600083018461036f565b92915050565b600080fd5b600073ffffffffffffffffffffffffffffffffffffffff82169050919050565b60006103c98261039e565b9050919050565b6103d9816103be565b81146103e457600080fd5b50565b6000813590506103f6816103d0565b92915050565b60006020828403121561041257610411610399565b5b6000610420848285016103e7565b91505092915050565b61043281610365565b82525050565b60608201600082015161044e6000850182610429565b5060208201516104616020850182610429565b5060408201516104746040850182610429565b50505050565b600060608201905061048f6000830184610438565b92915050565b61049e81610365565b81146104a957600080fd5b50565b6000813590506104bb81610495565b92915050565b6000602082840312156104d7576104d6610399565b5b60006104e5848285016104ac565b91505092915050565b7f4e487b7100000000000000000000000000000000000000000000000000000000600052601160045260246000fd5b600061052882610365565b915061053383610365565b925082820390508181111561054b5761054a6104ee565b5b92915050565b600061055c82610365565b915061056783610365565b925082820261057581610365565b9150828204841483151761058c5761058b6104ee565b5b5092915050565b600082825260208201905092915050565b7f496e73756666696369656e742062616c616e6365000000000000000000000000600082015250565b60006105da601483610593565b91506105e5826105a4565b602082019050919050565b60006020820190508181036000830152610609816105cd565b9050919050565b600061061b82610365565b915061062683610365565b925082820190508082111561063e5761063d6104ee565b5b92915050565b61064d816103be565b82525050565b60006080820190506106686000830187610644565b610675602083018661036f565b610682604083018561036f565b61068f606083018461036f565b9594505050505056fea26469706673582212201f84eceb9cb8e2e4a48f90d51ae43efd91af68d1dab8322f8ca1f8a663e1fcf164736f6c63430008110033",
  "linkReferences": {},
  "deployedLinkReferences": {}
}